:100000000C9482010C94AA010C94AA010C948C0506
:100010000C948C050C948C050C94AA010C94AA01E8
:100020000C94AA010C94AA010C94AA010C94AA01A4
:100030000C94AA010C94AA010C94AA010C94AA0194
:100040000C9442050C94AA010C94AA010C94AA01E8
:100050000C94AA010C94AA010C94AA010C94AA0174
:100060000C94AA010C94AA010000000023002600B1
:10007000290000000000240027002A0000000000E2
:10008000250028002B0004040404040404040202D4
:100090000202020203030303030301020408102007
:1000A0004080010204081020010204081020000012
:1000B0000008000201000003040700000000000027
:1000C00000000608205F0000000000000000002F74
:1000D000000000000700070000147F147F140024B4
:1000E0002A7F2A12002313086462003649552250E1
:1000F00000000503000000001C2241000000412216
:100100001C000014083E08140008083E08080000FF
:1001100000A06000000808080808000060600000F7
:10012000002010080402003E5149453E0000427F75
:100130004000004261514946002141454B310018C1
:1001400014127F10002745454539003C4A49493083
:10015000000171090503003649494936000649493D
:10016000291E000036360000000056360000000848
:100170001422410000141414141400004122140825
:1001800000020151090600324959513E007C12110A
:10019000127C007F49494936003E41414122007F9F
:1001A0004141221C007F49494941007F0909090159
:1001B000003E4149497A007F0808087F0000417FDE
:1001C0004100002040413F01007F08142241007F90
:1001D00040404040007F020C027F007F0408107FF7
:1001E000003E4141413E007F09090906003E415160
:1001F000215E007F0919294600464949493100011D
:10020000017F0101003F4040403F001F2040201F70
:10021000003F4038403F0063140814630007087033
:10022000080700615149454300007F414100AA553C
:10023000AA55AA55000041417F00000402010204B2
:10024000004040404040000003050000002054549E
:100250005478007F484444380038444444200038EF
:100260004444487F00385454541800087E09010261
:100270000018A4A4A47C007F080404780000447D36
:100280004000004080847D00007F10284400000072
:10029000417F4000007C04180478007C0804047846
:1002A00000384444443800FC242424180018242432
:1002B00018FC007C0804040800485454542000042E
:1002C0003F444020003C4040207C001C2040201C3B
:1002D000003C4030403C004428102844001CA0A0B2
:1002E000A07C004464544C440000107C8200000058
:1002F00000FF00000000827C1000000006090906D3
:100300008D08730911241FBECFEFD8E0DEBFCDBF2B
:1003100021E0A6E2B1E001C01D92A13BB207E1F7E6
:1003200011E0A0E0B1E0E6E3F8E102C005900D9233
:10033000A632B107D9F711E0C1E8D1E004C0219796
:10034000FE010E94DC09C038D107C9F70E940606E9
:100350000C940E0C0C9400009091A001E0919A0175
:10036000F0919B012081422F50E0292F30E0209511
:100370003095242335232083E0919601F091970155
:1003800090919E01208161110BC0422F50E0292FD6
:1003900030E02095309524233523208348E003C0A6
:1003A000922B9083FBCFE0919401F0919501909175
:1003B0009D01208187FF03C0922B908309C0622F8B
:1003C00070E0292F30E020953095262337232083B5
:1003D000880F90919C01E0919201F091930120810E
:1003E000622F70E0292F30E02095309526233723A7
:1003F0002083000090919C01E0919201F091930183
:100400002081922B9083415071F68091A001E09160
:100410009A01F0919B019081892B80830895CF925E
:10042000DF92EF92FF920F931F93CF93DF936C01B4
:100430007A018B01C0E0D0E0CE15DF0589F0D8014C
:100440006D918D01D601ED91FC910190F081E02D2F
:10045000C6010995892B11F47E0102C02196ECCFCB
:10046000C701DF91CF911F910F91FF90EF90DF9027
:10047000CF90089590E0FC01E255FF4F3491FC01CC
:10048000E656FF4F2491FC01EA57FF4FE491EE231B
:1004900009F43BC0332339F1333091F038F4313073
:1004A000A9F0323001F584B58F7D12C0373091F05C
:1004B0003830A1F03430B9F4809180008F7D03C0D2
:1004C000809180008F77809380000DC084B58F77F6
:1004D00084BD09C08091B0008F7703C08091B000C7
:1004E0008F7D8093B000F0E0EE0FFF1FE458FF4FC8
:1004F000A591B4918FB7F894EC91611103C0209548
:100500002E2301C02E2B2C938FBF0895CF93DF9302
:1005100090E0FC01E656FF4F2491FC01EA57FF4FA3
:100520008491882361F190E0880F991FFC01EE58B7
:10053000FF4FC591D491FC01E458FF4FA591B491B0
:10054000611109C09FB7F894888120958223888320
:10055000EC912E230BC0623061F49FB7F894388180
:10056000822F809583238883EC912E2B2C939FBF21
:1005700006C08FB7F894E8812E2B28838FBFDF91B8
:10058000CF9108953FB7F89480916B0190916C01E1
:10059000A0916D01B0916E0126B5A89B05C02F3FBB
:1005A00019F00196A11DB11D3FBFBA2FA92F982F99
:1005B0008827820F911DA11DB11DBC01CD0142E014
:1005C000660F771F881F991F4A95D1F708958F925C
:1005D0009F92AF92BF92CF92DF92EF92FF926B0108
:1005E0007C010E94C2024B015C01C114D104E104F0
:1005F000F104F1F00E94C202DC01CB0188199909D3
:10060000AA09BB09883E9340A105B10570F321E01A
:10061000C21AD108E108F10888EE880E83E0981E1E
:10062000A11CB11CC114D104E104F10419F7DDCF00
:10063000FF90EF90DF90CF90BF90AF909F908F9002
:10064000089520917101309172012817390771F4D2
:1006500090916F0180917001981741F0E0916F01C6
:10066000F0E0EA5DFE4F808190E008958FEF9FEF0C
:10067000089508951F93CF93DF93DC015C962D912D
:100680003C915D972115310539F481E090E0139696
:100690009C938E9312973DC05196ED91FC91529789
:1006A00050969C915097892F80951FB75E964C91DC
:1006B0005E9741FB772770F941FD6095F894408182
:1006C000772311F0492B01C048234083E90121978A
:1006D000F1F748E0508160FF02C0592B01C0582358
:1006E0005083E9012197F1F76695415099F77723F7
:1006F00021F090818923808303C08081982B90838F
:100700001FBF5C968D919C915D970197F1F721E059
:1007100030E0C901DF91CF911F91089520917101BF
:10072000309172012817390771F48091700120917E
:100730006F0190E0805C9F4F821B910960E470E044
:100740000E94B409089580E090E00895209171011D
:100750003091720128173907B9F490916F01809197
:100760007001981789F0E0916F01F0E0EA5DFE4FAB
:10077000808120916F0130E02F5F3F4F2F7333272F
:1007800020936F0190E008958FEF9FEF0895E0911F
:100790007101F0917201E817F90769F4A389B4892E
:1007A0009C918589809589238C9310927201109277
:1007B000710181E0089580E008952F923F924F9259
:1007C0005F926F927F928F929F92AF92BF92CF92E1
:1007D000DF92EF92FF920F931F93CF93DF931F92BD
:1007E000CDB7DEB72DB63EB6FC01E480F5809701AB
:1007F0002F5F3F4F4DB75EB7421B530B0FB6F894B8
:100800005EBF0FBE4DBF0DB71EB70F5F1F4F4091AC
:10081000AA014111ABC0232B99F00115110581F0FC
:10082000E114F10411F4F8010AC0FC016081718146
:10083000A701C8010E94FF0BF801EE0DFF1D1082F9
:10084000F80101900020E9F731972F01401A510A71
:10085000A12CB12CA414B5040CF088C08091A50182
:10086000F80181908F019091AA0191117BC090E0D5
:10087000A89E9001A99E300DB89E300D1124820FC4
:10088000931F853591050CF06DC08091A6018833CA
:1008900008F068C0C12CD12C422F40684983912CAC
:1008A0008091A60186958695869590E060E0C816B1
:1008B000D9060CF050C08C2D80640E94AC0160E021
:1008C00089810E94AC019091A5018091A601869535
:1008D000869586952091A701A401421B5109989FF6
:1008E000C0011124489F7001499FF00C589FF00CE3
:1008F000112454E0E50EF11C612C712C8091A501AE
:1009000090E0681679061CF56091A901C89E9001D7
:10091000C99E300DD89E300D11244091A3015091F5
:10092000A4012E0D3F1DFA01E20FF31F611103C058
:10093000849161E003C0849161E080950E94AC01E4
:100940008FEF681A780AEFEFEE1AFE0AD7CFFFEFA3
:10095000CF1ADF0AA5CF80E40E94AC0160E080E8F6
:100960000E94AC015FEFA51AB50A74CF0FB6F894D8
:100970003EBE0FBE2DBE0F90DF91CF911F910F9104
:10098000FF90EF90DF90CF90BF90AF909F908F90AF
:100990007F906F905F904F903F902F900895FC0153
:1009A00024813581232B31F421E061157105A1F0FB
:1009B000FB0108C0FC01808191816115710531F452
:1009C00021E0FC018081882339F005C00E94EF0BF3
:1009D00021E0892B09F020E0822F08950F931F93C7
:1009E000CF93DF93EC0188819981009729F02A81C8
:1009F0003B812617370788F48B016F5F7F4F0E947A
:100A00000F0B009761F0998388831B830A832C81E5
:100A10003D81232B11F4FC01108281E001C080E0B4
:100A2000DF91CF911F910F910895EF92FF920F9355
:100A30001F93CF93DF93EC017B018A01BA010E94DF
:100A4000EE042881398181110DC02115310519F07D
:100A5000C9010E94770A198218821D821C821B829A
:100A60001A8206C01D830C83B701C9010E94F80BCE
:100A7000CE01DF91CF911F910F91FF90EF900895DC
:100A80000E94D90B1F920F920FB60F9211242F9331
:100A90003F938F939F93AF93BF9380916701909102
:100AA0006801A0916901B0916A013091660123E06B
:100AB000230F2D3720F40196A11DB11D05C026E896
:100AC000230F0296A11DB11D20936601809367013B
:100AD00090936801A0936901B0936A0180916B01C2
:100AE00090916C01A0916D01B0916E010196A11DD4
:100AF000B11D80936B0190936C01A0936D01B09335
:100B00006E01BF91AF919F918F913F912F910F9067
:100B10000FBE0F901F9018951F920F920FB60F9255
:100B200011242F933F934F935F936F937F938F93F2
:100B30009F93AF93BF93EF93FF93E0917101F09177
:100B40007201309709F451C0968DA685B7858585C9
:100B500091FF04C09C91892329F447C09C9189236B
:100B600009F043C0A389B4899C9185898095892324
:100B70008C93868997890197F1F7608D718DA68591
:100B8000B785558538E020E0CB010197F1F7822F3A
:100B900090E095958795282F4C91452309F0206882
:100BA000315091F7868D81FD20958091700190E004
:100BB00001968F73992730916F01381749F0A091F2
:100BC0007001B0E0AA5DBE4F2C938093700103C00A
:100BD000868D8160868F828D938D0197F1F7A38931
:100BE000B4899C918589892B8C93FF91EF91BF915A
:100BF000AF919F918F917F916F915F914F913F91B5
:100C00002F910F900FBE0F901F901895CF93DF93E9
:100C1000CDB7DEB72C970FB6F894DEBF0FBECDBFB1
:100C2000789484B5826084BD84B5816084BD85B5C7
:100C3000826085BD85B5816085BD80916E008160D3
:100C400080936E0010928100809181008260809379
:100C5000810080918100816080938100809180007B
:100C60008160809380008091B10084608093B100A6
:100C70008091B00081608093B00080917A008460A0
:100C800080937A0080917A00826080937A008091CC
:100C90007A00816080937A0080917A0080688093E6
:100CA0007A001092C10010928E0110928D01109264
:100CB0008C0110928B0110928A01109289018DE9AA
:100CC00091E09093900180938F0190917F019631F4
:100CD00008F057C02DEB30E030938A012093890152
:100CE0002BE931E030938C0120938B012CE231E031
:100CF00030938E0120938D0120916800983050F040
:100D000031E09E3008F430E081E001C0880F3A9570
:100D1000EAF701C084E0822B80936800983038F0B5
:100D20009E3040F0963148F020E030E008C02DE6DB
:100D300030E005C02BE630E002C02CE630E0309316
:100D4000870120938601983030F481E001C0880F3C
:100D50009A95EAF70EC0292F30E09E3018F42850FB
:100D6000310902C02E50310981E001C0880F2A9557
:100D7000EAF78093880180918F019091900101970B
:100D8000F1F780918D0190918E01892B21F1809155
:100D900071019091720121E083379207E1F0009791
:100DA00011F00E94C703809191018E7F8093910181
:100DB0001092700110926F0183E791E0909372019D
:100DC00080937101E0918601F0918701908180917B
:100DD0008801892B808380919E01E0919601F0919A
:100DE00097019081892B808380919D01E0919401EE
:100DF000F09195019081892B808380919C01E091F5
:100E00009201F09193019081892B80838091A001C0
:100E1000E0919A01F0919B019081892B80839091C0
:100E20009F01E0919801F09199018081282F30E095
:100E3000892F90E0809590958223932380836AE0A8
:100E400070E080E090E00E94E70280919F01E091D5
:100E50009801F09199019081892B808360E081E273
:100E60000E94AC0160E086EC0E94AC0160E086E08C
:100E70000E94AC0160E083E10E94AC0160E080E28E
:100E80000E94AC0160E080E40E94AC0160E080E878
:100E90000E94AC0108EF11E061E080E00E94AC012B
:100EA00001501109C9F760E08CE00E94AC0110927A
:100EB000AA0186E490E09093AC018093AB01E2EC50
:100EC000F0E0F093A401E093A301E491E093A50185
:100ED000E3ECF0E0E491E093A601E4ECF0E0E491CF
:100EE000E093A701E5ECF0E0E491E093A801109213
:100EF000A90161E08DE00E94860260E08DE00E9421
:100F00003A0260E081E20E94AC0160E08CEB0E945A
:100F1000AC0160E080E20E94AC018CE390E0909331
:100F2000AC018093AB0161E084E00E94860261E045
:100F300085E00E94860261E086E00E94860261E010
:100F400087E00E94860280E0E82E80E0F82E188676
:100F50001F821A8619861C861B8640E050E065E2D7
:100F600071E0CE0107960E94150583E791E00E948B
:100F70008E03892B09F455C08091AA01811119C0F3
:100F800060E080E40E94AC0160E080E80E94AC0177
:100F900005E510E061E080E00E94AC01015011091C
:100FA000C9F760E080E40E94AC0160E080E80E9444
:100FB000AC0165E070E080E090E00E94E70283E72A
:100FC00091E00E94A60389831A820B851C850F5F1E
:100FD0001F4FB801CE0107960E94EE04882369F0E6
:100FE0002F8138858B859C85BE016F5F7F4F820F77
:100FF000931F0E94F80B1C870B870F811885011522
:10100000110509F4B2CFF8018081882309F4ADCF2E
:10101000082E000C990B0E94DE0BF80181938F01C2
:10102000F2CF1A8219821C821B821E821D826F815E
:1010300078856115710531F04B855C85CE0101968F
:101040000E941505CE0101960E94DD0389819A81D7
:101050000E94770A66E171E0CE0107960E94CF04F4
:10106000882311F061E009C069E171E0CE010796C3
:101070000E94CF04882321F060E084E00E943A02BD
:101080006DE171E0CE0107960E94CF04882311F034
:1010900061E009C069E171E0CE0107960E94CF04CA
:1010A000882321F060E085E00E943A0260E271E06E
:1010B000CE0107960E94CF04882311F061E009C099
:1010C00069E171E0CE0107960E94CF04882321F0E8
:1010D00060E086E00E943A0263E271E0CE0107968A
:1010E0000E94CF04882311F061E009C069E171E03A
:1010F000CE0107960E94CF04882321F060E087E0AC
:101100000E943A028F8198850E94770AE114F104C7
:1011100009F41DCF0E9400001ACFEEE8F0E0E49140
:10112000F0E0EE0FFF1FE458FF4F859194919093EC
:10113000930180939201E2EAF0E0E491E0939C0154
:10114000EFE8F0E0E491F0E0EE0FFF1FE458FF4F0E
:10115000859194919093950180939401E3EAF0E056
:10116000E491E0939D01E0E9F0E0E491F0E0EE0F1E
:10117000FF1FE458FF4F85919491909397018093BE
:101180009601E4EAF0E0E491E0939E01E1E9F0E009
:10119000E491F0E0EE0FFF1FE458FF4F859194912A
:1011A0009093990180939801E5EAF0E0E491E0934F
:1011B0009F01E2E9F0E0E491F0E0EE0FFF1FE45858
:1011C000FF4F8591949190939B0180939A01E6EA59
:1011D000F0E0E491E093A00161E088E00E948602E3
:1011E00061E089E00E94860261E08AE00E94860256
:1011F00061E08BE00E94860261E08CE00E94860242
:1012000088E08093A1018BE08093A2011092760187
:101210001092750188EE93E0A0E0B0E08093770132
:1012200090937801A0937901B0937A018AE091E0DC
:10123000909374018093730110928A011092890136
:1012400010928C0110928B0110928E0110928D01E0
:101250001092900110928F01609191016E7F6D7FCD
:10126000609391016695617081E0682783E00E9438
:101270003A0261E083E00E948602EDE9F0E0E49149
:10128000E0938301E9E8F0E0E491F0E0EE0FFF1F66
:10129000E458FF4F85919491909385018093840148
:1012A00060E082E00E9486028091910181FD04C08D
:1012B00061E082E00E943A0282E080937F01ECE9E3
:1012C000F0E0E491E0938001E8E8F0E0E491F0E000
:1012D000EE0FFF1FE859FF4F859194919093820183
:1012E0008093810108958AE091E090937401809346
:1012F000730183E791E00C94C7032F923F924F92C2
:101300005F926F927F928F929F92AF92BF92CF9295
:10131000DF92EF92FF920F931F93CF93DF93CDB79E
:10132000DEB7CA1BDB0B0FB6F894DEBF0FBECDBF16
:1013300009942A88398848885F846E847D848C84E7
:101340009B84AA84B984C884DF80EE80FD800C81F0
:101350001B81AA81B981CE0FD11D0FB6F894DEBFD3
:101360000FBECDBFED01089597FB072E16F4009434
:1013700007D077FD09D00E94C80907FC05D03EF4CC
:10138000909581959F4F0895709561957F4F089531
:10139000AA1BBB1B51E107C0AA1FBB1FA617B7079B
:1013A00010F0A61BB70B881F991F5A95A9F78095B7
:1013B0009095BC01CD010895EE0FFF1F0590F491AB
:1013C000E02D0994CF93DF938230910510F482E0F1
:1013D00090E0E091AF01F091B00120E030E0C0E09A
:1013E000D0E0309711F14081518148175907C0F082
:1013F0004817590761F482819381209719F09B83E4
:101400008A832BC09093B0018093AF0126C0211531
:10141000310519F04217530718F49A01BE01DF0194
:10142000EF010280F381E02DDCCF2115310509F1B8
:10143000281B390B2430310590F412968D919C9124
:1014400013976115710521F0FB019383828304C01A
:101450009093B0018093AF01FD01329644C0FD012D
:10146000E20FF31F81939193225031092D933C9306
:101470003AC02091AD013091AE01232B41F420916F
:101480000201309103013093AE012093AD01209110
:101490000001309101012115310541F42DB73EB70E
:1014A0004091040150910501241B350BE091AD01E1
:1014B000F091AE01E217F307A0F42E1B3F0B2817A3
:1014C000390778F0AC014E5F5F4F2417350748F0BD
:1014D0004E0F5F1F5093AE014093AD0181939193E6
:1014E00002C0E0E0F0E0CF01DF91CF9108950F93CB
:1014F0001F93CF93DF93009709F48CC0FC013297C0
:10150000138212820091AF011091B00101151105F3
:1015100081F420813181820F931F2091AD013091A0
:10152000AE012817390779F5F093AE01E093AD01CC
:1015300071C0D80140E050E0AE17BF0750F41296DA
:101540002D913C911397AD012115310509F1D90178
:10155000F3CF9D01DA013383228360817181860F8D
:10156000971F8217930769F4EC0128813981260FB0
:10157000371F2E5F3F4F318320838A819B81938366
:101580008283452B29F4F093B001E093AF0142C070
:101590001396FC93EE931297ED01499159919E0198
:1015A000240F351FE217F30771F480819181840FB6
:1015B000951F029611969C938E9382819381139628
:1015C0009C938E931297E0E0F0E0D80112968D91F3
:1015D0009C911397009719F0F8018C01F6CF8D912B
:1015E0009C9198012E5F3F4F820F931F2091AD0178
:1015F0003091AE012817390769F4309729F4109219
:10160000B0011092AF0102C0138212821093AE019A
:101610000093AD01DF91CF911F910F910895A0E04C
:10162000B0E0E5E1FBE00C948109EC01009721F4C6
:10163000CB010E94E209B8C0FC01E60FF71F9C0134
:1016400022503109E217F30708F4ACC0D9010D911B
:101650001C91119706171707B0F00530110508F413
:101660009FC0C80104978617970708F499C00250D5
:101670001109061B170B019311936D937C93CF01F6
:101680000E94770A8DC05B01A01AB10A4C01800E3E
:10169000911EA091AF01B091B00140E050E0E12C6B
:1016A000F12C109709F44AC0A815B905D1F56D9031
:1016B0007C901197630182E0C80ED11CCA14DB0430
:1016C00080F1A3014A195B096A0182E0C80ED11CAE
:1016D0001296BC9012971396AC91B5E0CB16D1043C
:1016E00040F0B282A38351834083D9016D937C93F0
:1016F0000AC00E5F1F4FC301800F911FF901918334
:101700008083EB2DFA2FE114F10431F0D701139609
:10171000FC93EE93129744C0F093B001E093AF01B5
:101720003FC08D919C9111974817590708F4AC015F
:101730007D0112960D90BC91A02DB3CF8091AD018B
:101740009091AE0188159905E1F446175707C8F442
:101750008091000190910101009741F48DB79EB7EF
:101760004091040150910501841B950BE817F9077E
:10177000C8F4F093AE01E093AD01F9017183608389
:101780000FC0CB010E94E2097C01009759F0A8012B
:10179000BE010E94E60BCE010E94770AC70104C079
:1017A000CE0102C080E090E0CDB7DEB7EEE00C9451
:1017B0009D0981E090E0F8940C940E0C911108952D
:1017C00081548A5108F4805E855A0895FB01DC013A
:1017D00002C001900D9241505040D8F70895FB018E
:1017E000DC018D91019080190110D9F3990B0895B6
:1017F000FB01DC0101900D920020E1F70895FB014F
:10180000DC014150504048F001900D920020C9F792
:1018100001C01D9241505040E0F7089511E0C1E829
:10182000D1E004C0FE010E94DC092196C238D10734
:06183000C9F7F894FFCF98
:101836000000B1018000000000003A030F028E0391
:10184600A60321033903667700737470006277007C
:06185600747200746C00C6
:00000001FF
