:100000000C9463000C948B000C948B000C94F20302
:100010000C94F2030C94F2030C948B000C948B0060
:100020000C948B000C948B000C948B000C948B0024
:100030000C948B000C948B000C948B000C948B0014
:100040000C94A8030C948B000C9476030C9450032E
:100050000C948B000C948B000C948B000C948B00F4
:100060000C948B000C948B000000000024002700EF
:100070002A0000000008000201000003040700003D
:1000800000000000000000000000250028002B00F8
:1000900000000000230026002900040404040404D6
:1000A0000404020202020202030303030303010227
:1000B00004081020408001020408102001020408F6
:1000C00010206C04B80611241FBECFEFD8E0DEBFAD
:1000D000CDBF22E0AAE2B1E001C01D92A733B20772
:1000E000E1F711E0A0E0B1E0E0E9F2E102C0059043
:1000F0000D92AA32B107D9F710E0C2E6D0E004C0F1
:100100002197FE010E942107C136D107C9F70E943D
:1001100017050C943B090C940000CF92DF92EF92EC
:10012000FF920F931F93CF93DF936C017A018B01A2
:10013000C0E0D0E0CE15DF0589F0D8016D918D01CA
:10014000D601ED91FC910190F081E02DC601099559
:10015000892B11F47E0102C02196ECCFC701DF91FB
:10016000CF911F910F91FF90EF90DF90CF90089566
:10017000FC01918D828D981761F0828DDF01A80FAF
:10018000B11D5D968C91928D9F5F9F73928F90E0D1
:1001900008958FEF9FEF0895FC01918D828D981740
:1001A00031F0828DE80FF11D858D90E008958FEF7D
:1001B0009FEF0895FC01918D228D892F90E0805C46
:1001C0009F4F821B91098F739927089587E791E0CC
:1001D0000E94DA0021E0892B09F420E0822F0895A3
:1001E000FC01848DDF01A80FB11DA35ABF4F2C91D4
:1001F000848D90E001968F739927848FA689B789A3
:100200002C93A089B1898C9180648C93938D848D7B
:10021000981306C00288F389E02D80818F7D80834A
:100220000895EF92FF920F931F93CF93DF93EC010A
:1002300081E0888F9B8D8C8D981305C0E889F989A2
:10024000808185FD24C0F62E0B8D10E00F5F1F4FBF
:100250000F731127E02E8C8DE8120CC00FB607FC2F
:10026000FACFE889F989808185FFF5CFCE010E9418
:10027000F000F1CF8B8DFE01E80FF11DE35AFF4F27
:10028000F0820B8FEA89FB898081806207C0EE894A
:10029000FF896083E889F98980818064808381E0B7
:1002A00090E0DF91CF911F910F91FF90EF90089513
:1002B000CF93DF93EC01888D8823C9F0EA89FB890D
:1002C000808185FD05C0A889B9898C9186FD0FC004
:1002D0000FB607FCF5CF808185FFF2CFA889B989D9
:1002E0008C9185FFEDCFCE010E94F000E7CFDF912A
:1002F000CF91089580E090E0892B29F00E94E600DC
:1003000081110C940000089590E0FC01EE58FF4F1D
:100310003491FC01E255FF4F2491FC01E656FF4F5A
:10032000E491EE2309F43BC0332339F1333091F0EB
:1003300038F43130A9F0323001F584B58F7D12C028
:10034000373091F03830A1F03430B9F4809180002A
:100350008F7D03C0809180008F77809380000DC0D7
:1003600084B58F7784BD09C08091B0008F7703C0BA
:100370008091B0008F7D8093B000F0E0EE0FFF1F02
:10038000EA57FF4FA591B4918FB7F894EC916111A2
:1003900003C020952E2301C02E2B2C938FBF0895D0
:1003A000CF93DF9390E0FC01E255FF4F2491FC01D5
:1003B000E656FF4F8491882361F190E0880F991FE2
:1003C000FC01E859FF4FC591D491FC01EA57FF4F5A
:1003D000A591B491611109C09FB7F89488812095C7
:1003E00082238883EC912E230BC0623061F49FB787
:1003F000F8943881822F809583238883EC912E2B6B
:100400002C939FBF06C08FB7F894E8812E2B2883CA
:100410008FBFDF91CF9108953FB7F89480916F011E
:1004200090917001A0917101B091720126B5A89BC5
:1004300005C02F3F19F00196A11DB11D3FBFBA2F76
:10044000A92F982F8827820F911DA11DB11DBC01D6
:10045000CD0142E0660F771F881F991F4A95D1F79B
:1004600008958F929F92AF92BF92CF92DF92EF92B8
:10047000FF926B017C010E940C024B015C01C114D4
:10048000D104E104F104F1F00E940C02DC01CB0183
:1004900088199909AA09BB09883E9340A105B105AD
:1004A00070F321E0C21AD108E108F10888EE880E45
:1004B00083E0981EA11CB11CC114D104E104F10415
:1004C00019F7DDCFFF90EF90DF90CF90BF90AF9006
:1004D0009F908F9008952091750130917601281793
:1004E000390771F49091730180917401981741F06C
:1004F000E0917301F0E0E65DFE4F808190E00895A9
:100500008FEF9FEF089508951F93CF93DF93DC0142
:100510005C962D913C915D972115310539F481E070
:1005200090E013969C938E9312973DC05196ED9157
:10053000FC91529750969C915097892F80951FB7A8
:100540005E964C915E9741FB772770F941FD60956F
:10055000F8944081772311F0492B01C04823408350
:10056000E9012197F1F748E0508160FF02C0592B63
:1005700001C058235083E9012197F1F76695415056
:1005800099F7772321F090818923808303C08081AC
:10059000982B90831FBF5C968D919C915D970197DE
:1005A000F1F721E030E0C901DF91CF911F9108956B
:1005B00020917501309176012817390771F48091E7
:1005C00074012091730190E0805C9F4F821B910920
:1005D00060E470E00E94F906089580E090E00895DC
:1005E000209175013091760128173907B9F490915F
:1005F000730180917401981789F0E0917301F0E024
:10060000E65DFE4F80812091730130E02F5F3F4F08
:100610002F7333272093730190E008958FEF9FEF9E
:100620000895E0917501F0917601E817F90769F4F2
:10063000A389B4899C918589809589238C93109294
:1006400076011092750181E0089580E008950F937E
:100650001F93CF93DF93EC0188819981009729F054
:100660002A813B812617370788F48B016F5F7F4F04
:100670000E945408009761F0998388831B830A8342
:100680002C813D81232B11F4FC01108281E001C0FB
:1006900080E0DF91CF911F910F9108950E941E0974
:1006A0001F920F920FB60F9211242F933F934F93E7
:1006B0005F936F937F938F939F93AF93BF93EF93CA
:1006C000FF9387E791E00E94F000FF91EF91BF91C7
:1006D000AF919F918F917F916F915F914F913F91DA
:1006E0002F910F900FBE0F901F9018951F920F9291
:1006F0000FB60F9211242F938F939F93EF93FF9335
:10070000E0918701F09188018081E0918D01F09165
:100710008E0182FD12C09081809190018F5F8F7356
:1007200020919101821751F0E0919001F0E0E95899
:10073000FE4F958F8093900101C08081FF91EF91D2
:100740009F918F912F910F900FBE0F901F90189532
:100750001F920F920FB60F9211242F933F938F93F6
:100760009F93AF93BF9380916B0190916C01A09187
:100770006D01B0916E0130916A0123E0230F2D3796
:1007800020F40196A11DB11D05C026E8230F029695
:10079000A11DB11D20936A0180936B0190936C01A0
:1007A000A0936D01B0936E0180916F0190917001E3
:1007B000A0917101B09172010196A11DB11D8093AC
:1007C0006F0190937001A0937101B0937201BF917A
:1007D000AF919F918F913F912F910F900FBE0F90EE
:1007E0001F9018951F920F920FB60F9211242F93FE
:1007F0003F934F935F936F937F938F939F93AF93A9
:10080000BF93EF93FF93E0917501F09176013097DC
:1008100009F451C0968DA685B785858591FF04C0E2
:100820009C91892329F447C09C91892309F043C0F6
:10083000A389B4899C918589809589238C93868925
:1008400097890197F1F7608D718DA685B7855585DC
:1008500038E020E0CB010197F1F7822F90E09595E9
:100860008795282F4C91452309F02068315091F746
:10087000868D81FD20958091740190E001968F73A3
:10088000992730917301381749F0A0917401B0E0B5
:10089000A65DBE4F2C938093740103C0868D81604A
:1008A000868F828D938D0197F1F7A389B4899C91EE
:1008B0008589892B8C93FF91EF91BF91AF919F9187
:1008C0008F917F916F915F914F913F912F910F90F9
:1008D0000FBE0F901F90189510927A011092790117
:1008E00088EE93E0A0E0B0E080937B0190937C01E0
:1008F000A0937D01B0937E012AE031E0309378012E
:100900002093770125EC30E030938401209383011C
:1009100024EC30E0309386012093850120EC30E018
:10092000309388012093870121EC30E030938A01D5
:100930002093890122EC30E030938C0120938B01CD
:1009400026EC30E030938E0120938D0110929001BF
:10095000109291011092920110929301109217023D
:10096000109216028093180290931902A0931A0213
:10097000B0931B028AE191E09093150280931402D8
:1009800010922B0210922A0210922D0210922C0229
:1009900010922F0210922E02109231021092300209
:1009A000609132026E7F6D7F609332026695617056
:1009B00081E0682783E00E94840161E083E00E9477
:1009C000D001E1EBF0E0E491E0932402EDE9F0E006
:1009D000E491F0E0EE0FFF1FEA57FF4F85919491ED
:1009E000909326028093250260E082E00E94D0016D
:1009F0008091320281FD04C061E082E00E948401A6
:100A000082E080932002E0EBF0E0E491E0932102A9
:100A1000ECE9F0E0E491F0E0EE0FFF1FE057FF4F4C
:100A20008591949190932302809322020895CF930D
:100A3000DF93CDB7DEB728970FB6F894DEBF0FBEB1
:100A4000CDBF789484B5826084BD84B5816084BD57
:100A500085B5826085BD85B5816085BD80916E005C
:100A6000816080936E00109281008091810082608D
:100A700080938100809181008160809381008091CA
:100A800080008160809380008091B10084608093B9
:100A9000B1008091B00081608093B00080917A00B5
:100AA000846080937A0080917A00826080937A00DB
:100AB00080917A00816080937A0080917A008068CA
:100AC00080937A001092C100E0918701F091880133
:100AD00082E08083E0918301F09184011082E091B3
:100AE0008501F09186018FEC808310928F01E09157
:100AF0008B01F0918C0186E08083E0918901F09177
:100B00008A01808180618083E0918901F0918A016E
:100B1000808188608083E0918901F0918A018081E1
:100B200080688083E0918901F0918A0180818F7DC6
:100B3000808310922F0210922E0210922D0210929A
:100B40002C0210922B0210922A028DE991E09093D0
:100B500031028093300290912002963108F057C004
:100B60002DEB30E030932B0220932A022BE931E069
:100B700030932D0220932C022CE231E030932F028F
:100B800020932E0220916800983050F031E09E3082
:100B900008F430E081E001C0880F3A95EAF701C01F
:100BA00084E0822B80936800983038F09E3040F0CB
:100BB000963148F020E030E008C02DE630E005C076
:100BC0002BE630E002C02CE630E030932802209380
:100BD0002702983030F481E001C0880F9A95EAF737
:100BE0000EC0292F30E09E3018F42850310902C081
:100BF0002E50310981E001C0880F2A95EAF78093D1
:100C0000290280913002909131020197F1F7809191
:100C10002E0290912F02892B21F1809175019091E4
:100C2000760122E084319207E1F0009711F00E94F2
:100C30001103809132028E7F8093320210927401F0
:100C40001092730184E192E0909376018093750194
:100C5000E0912702F0912802908180912902892B4E
:100C6000808361E08DE00E94D00160E08DE00E9411
:100C700084011A8219821C821B821E821D8260E0FE
:100C800070E0CE0101960E94270329813A818111EB
:100C90000DC02115310519F0C9010E94BC071A8247
:100CA00019821E821D821C821B8231C01E821D82FF
:100CB00068E271E0C9010E94340929C065E070E072
:100CC00080E090E00E94310284E192E00E94F00214
:100CD0008F8318860D811E810F5F1F4FB801CE01D3
:100CE00001960E942703882369F029813A818D812A
:100CF0009E81BE01695F7F4F820F931F0E9434095E
:100D00001E830D8309811A810115110539F484E1CF
:100D100092E00E94D802892B89F60DC0F8018081EB
:100D20008823A9F3082E000C990B0E942309F801CF
:100D300081938F01F3CF4D815E8169817A8187E74D
:100D400091E00E948D0042E050E066E271E087E7AA
:100D500091E00E948D0064E670E080E090E00E94E7
:100D6000310289819A810E94BC070E947A0181CF59
:100D70008AE191E0909315028093140284E192E05D
:100D80000C9411032F923F924F925F926F927F9239
:100D90008F929F92AF92BF92CF92DF92EF92FF928B
:100DA0000F931F93CF93DF93CDB7DEB7CA1BDB0B37
:100DB0000FB6F894DEBF0FBECDBF09942A883988DC
:100DC00048885F846E847D848C849B84AA84B984E3
:100DD000C884DF80EE80FD800C811B81AA81B981EF
:100DE000CE0FD11D0FB6F894DEBF0FBECDBFED0103
:100DF000089597FB072E16F4009407D077FD09D0CD
:100E00000E940D0707FC05D03EF4909581959F4FF9
:100E10000895709561957F4F0895AA1BBB1B51E102
:100E200007C0AA1FBB1FA617B70710F0A61BB70B5A
:100E3000881F991F5A95A9F780959095BC01CD01FF
:100E40000895EE0FFF1F0590F491E02D0994CF93C4
:100E5000DF938230910510F482E090E0E09135025A
:100E6000F091360220E030E0C0E0D0E0309711F1A0
:100E70004081518148175907C0F04817590761F45C
:100E800082819381209719F09B838A832BC0909352
:100E900036028093350226C02115310519F042171C
:100EA000530718F49A01BE01DF01EF010280F381BC
:100EB000E02DDCCF2115310509F1281B390B243039
:100EC000310590F412968D919C91139761157105DF
:100ED00021F0FB019383828304C0909336028093B8
:100EE0003502FD01329644C0FD01E20FF31F8193EC
:100EF0009193225031092D933C933AC020913302B3
:100F000030913402232B41F42091020130910301EE
:100F1000309334022093330220910001309101017B
:100F20002115310541F42DB73EB740910401509190
:100F30000501241B350BE0913302F0913402E217D6
:100F4000F307A0F42E1B3F0B2817390778F0AC01EC
:100F50004E5F5F4F2417350748F04E0F5F1F5093C9
:100F60003402409333028193919302C0E0E0F0E0B9
:100F7000CF01DF91CF9108950F931F93CF93DF930C
:100F8000009709F48CC0FC01329713821282009101
:100F90003502109136020115110581F4208131814D
:100FA000820F931F209133023091340228173907A2
:100FB00079F5F0933402E093330271C0D80140E038
:100FC00050E0AE17BF0750F412962D913C91139745
:100FD000AD012115310509F1D901F3CF9D01DA01E8
:100FE0003383228360817181860F971F8217930755
:100FF00069F4EC0128813981260F371F2E5F3F4F9E
:10100000318320838A819B8193838283452B29F4BA
:10101000F0933602E093350242C01396FC93EE93B0
:101020001297ED01499159919E01240F351FE21746
:10103000F30771F480819181840F951F02961196B8
:101040009C938E938281938113969C938E93129797
:10105000E0E0F0E0D80112968D919C9113970097F3
:1010600019F0F8018C01F6CF8D919C9198012E5FBB
:101070003F4F820F931F2091330230913402281783
:10108000390769F4309729F410923602109235022C
:1010900002C0138212821093340200933302DF9154
:1010A000CF911F910F910895A0E0B0E0EAE5F8E03C
:1010B0000C94C606EC01009721F4CB010E9427078F
:1010C000B8C0FC01E60FF71F9C0122503109E2175E
:1010D000F30708F4ACC0D9010D911C9111970617C4
:1010E0001707B0F00530110508F49FC0C801049738
:1010F0008617970708F499C002501109061B170BB1
:10110000019311936D937C93CF010E94BC078DC016
:101110005B01A01AB10A4C01800E911EA09135020C
:10112000B091360240E050E0E12CF12C109709F428
:101130004AC0A815B905D1F56D907C90119763014F
:1011400082E0C80ED11CCA14DB0480F1A3014A1945
:101150005B096A0182E0C80ED11C1296BC901297FE
:101160001396AC91B5E0CB16D10440F0B282A383C4
:1011700051834083D9016D937C930AC00E5F1F4F4A
:10118000C301800F911FF90191838083EB2DFA2F0A
:10119000E114F10431F0D7011396FC93EE9312970A
:1011A00044C0F0933602E09335023FC08D919C918C
:1011B00011974817590708F4AC017D0112960D905C
:1011C000BC91A02DB3CF8091330290913402881549
:1011D0009905E1F446175707C8F4809100019091F2
:1011E0000101009741F48DB79EB7409104015091E1
:1011F0000501841B950BE817F907C8F4F093340236
:10120000E0933302F901718360830FC0CB010E9428
:1012100027077C01009759F0A801BE010E942B0905
:10122000CE010E94BC07C70104C0CE0102C080E00D
:1012300090E0CDB7DEB7EEE00C94E20681E090E0FE
:10124000F8940C943B099111089581548A5108F443
:10125000805E855A0895FB01DC0102C001900D9269
:1012600041505040D8F70895FB01DC0101900D92E8
:101270000020E1F7089510E0C2E6D0E004C0FE01CE
:101280000E9421072196C336D107C9F7F894FFCFF2
:101290000000370280000000000011018D00DA001C
:1012A000B800CC0058010000000084028D00D80274
:0A12B000F0026B0283020D0A000039
:00000001FF
